{"contracts/TokenBurn.sol":{"TokenBurn":{"abi":[{"inputs":[{"internalType":"string","name":"_name","type":"string"},{"internalType":"string","name":"_symbol","type":"string"},{"internalType":"uint256","name":"_initialSupply","type":"uint256"},{"internalType":"address","name":"_uniswapRouter","type":"address"},{"internalType":"address","name":"_uniswapPair","type":"address"}],"stateMutability":"nonpayable","type":"constructor"},{"anonymous":false,"inputs":[{"indexed":true,"internalType":"address","name":"owner","type":"address"},{"indexed":true,"internalType":"address","name":"spender","type":"address"},{"indexed":false,"internalType":"uint256","name":"value","type":"uint256"}],"name":"Approval","type":"event"},{"anonymous":false,"inputs":[{"indexed":false,"internalType":"uint256","name":"amount","type":"uint256"}],"name":"Bought","type":"event"},{"anonymous":false,"inputs":[{"indexed":true,"internalType":"address","name":"burner","type":"address"},{"indexed":false,"internalType":"uint256","name":"value","type":"uint256"}],"name":"Burn","type":"event"},{"anonymous":false,"inputs":[{"indexed":true,"internalType":"address","name":"previousOwner","type":"address"},{"indexed":true,"internalType":"address","name":"newOwner","type":"address"}],"name":"OwnershipTransferred","type":"event"},{"anonymous":false,"inputs":[{"indexed":false,"internalType":"uint256","name":"amount","type":"uint256"}],"name":"Sold","type":"event"},{"anonymous":false,"inputs":[{"indexed":true,"internalType":"address","name":"from","type":"address"},{"indexed":true,"internalType":"address","name":"to","type":"address"},{"indexed":false,"internalType":"uint256","name":"value","type":"uint256"}],"name":"Transfer","type":"event"},{"inputs":[{"internalType":"address","name":"","type":"address"},{"internalType":"address","name":"","type":"address"}],"name":"allowance","outputs":[{"internalType":"uint256","name":"","type":"uint256"}],"stateMutability":"view","type":"function"},{"inputs":[{"internalType":"address","name":"_spender","type":"address"},{"internalType":"uint256","name":"_value","type":"uint256"}],"name":"approve","outputs":[{"internalType":"bool","name":"success","type":"bool"}],"stateMutability":"nonpayable","type":"function"},{"inputs":[{"internalType":"address","name":"","type":"address"}],"name":"balanceOf","outputs":[{"internalType":"uint256","name":"","type":"uint256"}],"stateMutability":"view","type":"function"},{"inputs":[{"internalType":"uint256","name":"_value","type":"uint256"}],"name":"burn","outputs":[{"internalType":"bool","name":"success","type":"bool"}],"stateMutability":"nonpayable","type":"function"},{"inputs":[],"name":"buy","outputs":[],"stateMutability":"payable","type":"function"},{"inputs":[],"name":"decimals","outputs":[{"internalType":"uint8","name":"","type":"uint8"}],"stateMutability":"view","type":"function"},{"inputs":[],"name":"name","outputs":[{"internalType":"string","name":"","type":"string"}],"stateMutability":"view","type":"function"},{"inputs":[],"name":"owner","outputs":[{"internalType":"address","name":"","type":"address"}],"stateMutability":"view","type":"function"},{"inputs":[],"name":"renounceOwnership","outputs":[],"stateMutability":"nonpayable","type":"function"},{"inputs":[{"internalType":"uint256","name":"_amount","type":"uint256"}],"name":"sell","outputs":[],"stateMutability":"nonpayable","type":"function"},{"inputs":[{"internalType":"address","name":"addre","type":"address"}],"name":"setUniswapPair","outputs":[],"stateMutability":"nonpayable","type":"function"},{"inputs":[{"internalType":"address","name":"addre","type":"address"}],"name":"setUniswapRouter","outputs":[],"stateMutability":"nonpayable","type":"function"},{"inputs":[],"name":"symbol","outputs":[{"internalType":"string","name":"","type":"string"}],"stateMutability":"view","type":"function"},{"inputs":[],"name":"totalSupply","outputs":[{"internalType":"uint256","name":"","type":"uint256"}],"stateMutability":"view","type":"function"},{"inputs":[{"internalType":"address","name":"_to","type":"address"},{"internalType":"uint256","name":"_value","type":"uint256"}],"name":"transfer","outputs":[{"internalType":"bool","name":"success","type":"bool"}],"stateMutability":"nonpayable","type":"function"},{"inputs":[{"internalType":"address","name":"_from","type":"address"},{"internalType":"address","name":"_to","type":"address"},{"internalType":"uint256","name":"_value","type":"uint256"}],"name":"transferFrom","outputs":[{"internalType":"bool","name":"success","type":"bool"}],"stateMutability":"nonpayable","type":"function"},{"inputs":[{"internalType":"address","name":"newOwner","type":"address"}],"name":"transferOwnership","outputs":[],"stateMutability":"nonpayable","type":"function"},{"inputs":[],"name":"uniswapPair","outputs":[{"internalType":"address","name":"","type":"address"}],"stateMutability":"view","type":"function"},{"inputs":[],"name":"uniswapRouter","outputs":[{"internalType":"address","name":"","type":"address"}],"stateMutability":"view","type":"function"}],"evm":{"bytecode":{"linkReferences":{},"object":"608060405234620004145762001731803803806200001d8162000419565b92833981019060a081830312620004145780516001600160401b0391908281116200041457836200005091830162000455565b90602093848201519084821162000414576200006e91830162000455565b936040820151906200009160806200008960608601620004d8565b9401620004d8565b9360009182549660018060a01b031998338a8a1617855560018060a01b0398893391167f8be0079c531659141344cd1fd0a4f28419497f9722a3daafe3b4186f6b6457e087604051a383519180831162000400576004928354906001968783811c93168015620003f5575b8784101462000301578190601f93848111620003a2575b5087908483116001146200033e578a9262000332575b5050600019600383901b1c191690871b1784555b82519182116200031f5760059283548781811c9116801562000314575b87821014620003015790818385949311620002ae575b50869183116001146200024a5788926200023e575b5050600019600383901b1c191690851b1790555b6006549460ff8616604d81116200022b57600a0a91816000190483118215151662000218575060409493929160129102958660035560ff19161760065533835252205560065490610100600160a81b039060081b1690610100600160a81b03191617600655169060075416176007556040516112439081620004ee8239f35b634e487b7160e01b865260119052602485fd5b634e487b7160e01b865260118352602486fd5b01519050388062000185565b8489528689208894509190601f1984168a5b898282106200029757505084116200027d575b505050811b01905562000199565b015160001960f88460031b161c191690553880806200026f565b8385015186558b979095019493840193016200025c565b9091925084895286892083808601871c820192898710620002f7575b9186958b9295949301881c01915b828110620002e857505062000170565b8b81558695508a9101620002d8565b92508192620002ca565b634e487b7160e01b895260228652602489fd5b90607f16906200015a565b634e487b7160e01b875260418452602487fd5b01519050388062000129565b878b52888b208a94509190601f1984168c5b8b8282106200038b575050841162000371575b505050811b0184556200013d565b015160001960f88460031b161c1916905538808062000363565b8385015186558d9790950194938401930162000350565b909150868a52878a208480850160051c8201928a8610620003eb575b918b91869594930160051c01915b828110620003dc57505062000113565b8c81558594508b9101620003cc565b92508192620003be565b92607f1692620000fc565b634e487b7160e01b86526041600452602486fd5b600080fd5b6040519190601f01601f191682016001600160401b038111838210176200043f57604052565b634e487b7160e01b600052604160045260246000fd5b81601f8201121562000414578051906001600160401b0382116200043f576020906200048a601f8401601f1916830162000419565b93838552828483010111620004145782906000905b83838310620004bf57505011620004b557505090565b6000918301015290565b819350828193920101518282880101520183916200049f565b51906001600160a01b0382168203620004145756fe6080604081815260048036101561001557600080fd5b600092833560e01c90816306fdde0314610d4957508063095ea7b314610c8c57806318160ddd14610c6d57806323b872dd14610b14578063313ce56714610af257806342966c6814610a6e57806370a0823114610a37578063715018a6146109ce578063735de9f7146109a35780638da5cb5b1461097d57806395d89b411461087b578063a6f2ae3a1461066f578063a9059cbb1461059f578063bea9849e14610520578063c816841b146104f8578063d5aed6bf146104a0578063dd62ed3e14610453578063e4849b32146101dd5763f2fde38b146100f457600080fd5b346101d95760203660031901126101d95761010d610ee8565b610115610f19565b6001600160a01b0380911691821561017057508354928273ffffffffffffffffffffffffffffffffffffffff1985161785555192167f8be0079c531659141344cd1fd0a4f28419497f9722a3daafe3b4186f6b6457e08484a3f35b608490602085519162461bcd60e51b8352820152602660248201527f4f776e61626c653a206e6577206f776e657220697320746865207a65726f206160448201527f64647265737300000000000000000000000000000000000000000000000000006064820152fd5b8280fd5b50346101d95760208060031936011261044f57813591821561040e5784903382526001835261021184868420541015610fbc565b33825260018352848220610226858254611074565b905561023484600354611074565b60035584519061024382610e3d565b60028252853685840137306102578361109e565b526001600160a01b038060065460081c16908751906315ab88c960e31b825286828581865afa9182156104045786926103d5575b50610295856110c1565b91169052865163d06ca61f60e01b815286838201528760248201528481806102c0604482018861114d565b0381855afa9182156103cb5761031f93866102e581958b9583916103b1575b506110c1565b51968b51968795869485937f8803dbee00000000000000000000000000000000000000000000000000000000855242928c3093870161118a565b03925af180156103a757839283928392610385575b5081811561037c575b3390f115610370577f92f64ca637d023f354075a4be751b169c1a8a9ccb6d33cdd0cb3520543995727918351908152a151f35b505051903d90823e3d90fd5b506108fc61033d565b6103a0903d8085833e6103988183610e6f565b8101906110d1565b5038610334565b86513d85823e3d90fd5b6103c591503d8085833e6103988183610e6f565b386102df565b88513d87823e3d90fd5b6103f6919250873d89116103fd575b6103ee8183610e6f565b81019061107f565b903861028b565b503d6103e4565b89513d88823e3d90fd5b60649184519162461bcd60e51b8352820152601360248201527f496e76616c69642073656c6c20616d6f756e74000000000000000000000000006044820152fd5b8380fd5b50503461049c578060031936011261049c5780602092610471610ee8565b610479610f03565b6001600160a01b0391821683526002865283832091168252845220549051908152f35b5080fd5b50503461049c57602036600319011261049c576001600160a01b036104c3610ee8565b6104cb610f19565b166104d78115156111c2565b73ffffffffffffffffffffffffffffffffffffffff19600754161760075551f35b50503461049c578160031936011261049c576020906001600160a01b03600754169051908152f35b50503461049c57602036600319011261049c5761053b610ee8565b610543610f19565b6105576001600160a01b03821615156111c2565b7fffffffffffffffffffffff0000000000000000000000000000000000000000ff74ffffffffffffffffffffffffffffffffffffffff006006549260081b1691161760065551f35b50503461049c578060031936011261049c576105b9610ee8565b906001600160a01b0360243592166105d2811515610f71565b338452600192826020958587526105ee83838320541015610fbc565b8381528587526106156106048484842054611007565b858352878952838320541115611029565b338152858752818120610629848254611074565b90558381528587522061063d828254611007565b905582519081527fddf252ad1be2c89b69c2b068fc378daa952ba7f163c4a11628f55a4df523b3ef853392a351908152f35b50826003193601126101d95734156108395781519061068d82610e3d565b60028252602090833683850137846001600160a01b03938460065460081c16948651906315ab88c960e31b8252858286818a5afa91821561082f578492610810575b506106d98361109e565b91169052306106e7826110c1565b5285519463d06ca61f60e01b86523484870152866024870152828680610710604482018661114d565b0381845afa9586156108065761076c966107309185916107f257506110c1565b51938388518098819582947f38ed1739000000000000000000000000000000000000000000000000000000008452429130918b3491870161118a565b03925af19283156107e8577f4e08ba899977cf7d4c2964bce71c6b9a7ef76ee5166a4c1249a1e08016e33ef1936107ce575b50338552600182528385206107b4828254611007565b90556107c281600354611007565b6003558351908152a151f35b6107e1903d8088833e6103988183610e6f565b503861079e565b84513d87823e3d90fd5b6103c591503d8087833e6103988183610e6f565b87513d85823e3d90fd5b610828919250863d88116103fd576103ee8183610e6f565b90386106cf565b88513d86823e3d90fd5b6020606492519162461bcd60e51b8352820152601760248201527f496e76616c696420707572636861736520616d6f756e740000000000000000006044820152fd5b5090346101d957826003193601126101d957805191836005549060019082821c928281168015610973575b6020958686108214610960575084885290811561093e57506001146108e5575b6108e186866108d7828b0383610e6f565b5191829182610e91565b0390f35b929550600583527f036b6384b5eca791c62761152d0c79bb0604c104a5fb6f4eb0703f3154bb3db05b82841061092b57505050826108e1946108d79282010194386108c6565b805486850188015292860192810161090e565b60ff191687860152505050151560051b83010192506108d7826108e1386108c6565b836022602492634e487b7160e01b835252fd5b93607f16936108a6565b50503461049c578160031936011261049c576001600160a01b0360209254169051908152f35b50503461049c578160031936011261049c576020906001600160a01b0360065460081c169051908152f35b50503461049c578160031936011261049c576109e8610f19565b816001600160a01b0381549273ffffffffffffffffffffffffffffffffffffffff19841683555192167f8be0079c531659141344cd1fd0a4f28419497f9722a3daafe3b4186f6b6457e08284a3f35b50503461049c57602036600319011261049c57806020926001600160a01b03610a5e610ee8565b1681526001845220549051908152f35b50346101d95760203660031901126101d9579181602093359133815260018552610a9d83838320541015610fbc565b3381526001855220610ab0828254611074565b9055610abe81600354611074565b60035581519081527fcc16f5dbb4873280815c1ee09dbd06736cffcc184412cf7a71a0fdb75d397ca5833392a25160018152f35b50503461049c578160031936011261049c5760209060ff600654169051908152f35b5091903461049c57606036600319011261049c57610b30610ee8565b610b38610f03565b604435906001600160a01b0380911692610b53841515610f71565b1690818552600194602096868852610b7083878420541015610fbc565b838252600288528582203383528852828683205410610c2b57507fddf252ad1be2c89b69c2b068fc378daa952ba7f163c4a11628f55a4df523b3ef918582868a9452888452610bd6610bc58484842054611007565b8883528a8652838320541115611029565b858152888452818120610bea848254611074565b9055868152888452818120610c00848254611007565b905585815260028452818120338252845220610c1d828254611074565b90558551908152a351908152f35b6064908887519162461bcd60e51b8352820152601660248201527f496e73756666696369656e7420616c6c6f77616e6365000000000000000000006044820152fd5b50503461049c578160031936011261049c576020906003549051908152f35b509134610d465781600319360112610d4657610ca6610ee8565b6001600160a01b036024359116918215610d035760209450838291338152600287528181208582528752205582519081527f8c5be1e5ebec7d5bd14f71427d1e84f3dd0314c0f7b2291e5b200ac8c7c3b925843392a35160018152f35b606485602086519162461bcd60e51b8352820152601760248201527f496e76616c6964207370656e64657220616464726573730000000000000000006044820152fd5b80fd5b9050828434610d465780600319360112610d4657809380549160019083821c92828516948515610e33575b6020958686108114610e2057858952908115610dfc5750600114610da4575b6108e187876108d7828c0383610e6f565b81529295507f8a35acfbc15ff81a39ae7d344fd709f28e8600b4aa8c65c6b64bfe7fe36bd19b5b828410610de957505050826108e1946108d792820101948680610d93565b8054868501880152928601928101610dcb565b60ff19168887015250505050151560051b83010192506108d7826108e18680610d93565b602484602285634e487b7160e01b835252fd5b93607f1693610d74565b6060810190811067ffffffffffffffff821117610e5957604052565b634e487b7160e01b600052604160045260246000fd5b90601f8019910116810190811067ffffffffffffffff821117610e5957604052565b919091602080825283519081818401526000945b828610610ed2575050806040939411610ec5575b601f01601f1916010190565b6000838284010152610eb9565b8581018201518487016040015294810194610ea5565b600435906001600160a01b0382168203610efe57565b600080fd5b602435906001600160a01b0382168203610efe57565b6001600160a01b03600054163303610f2d57565b606460405162461bcd60e51b815260206004820152602060248201527f4f776e61626c653a2063616c6c6572206973206e6f7420746865206f776e65726044820152fd5b15610f7857565b606460405162461bcd60e51b815260206004820152601960248201527f496e76616c696420726563697069656e742061646472657373000000000000006044820152fd5b15610fc357565b606460405162461bcd60e51b815260206004820152601460248201527f496e73756666696369656e742062616c616e63650000000000000000000000006044820152fd5b81198111611013570190565b634e487b7160e01b600052601160045260246000fd5b1561103057565b606460405162461bcd60e51b815260206004820152601660248201527f496e7465676572206f766572666c6f77206572726f72000000000000000000006044820152fd5b818110611013570390565b90816020910312610efe57516001600160a01b0381168103610efe5790565b8051156110ab5760200190565b634e487b7160e01b600052603260045260246000fd5b8051600110156110ab5760400190565b906020908183820312610efe57825167ffffffffffffffff93848211610efe570181601f82011215610efe578051938411610e59578360051b906040519461111b85840187610e6f565b85528380860192820101928311610efe578301905b82821061113e575050505090565b81518152908301908301611130565b90815180825260208080930193019160005b82811061116d575050505090565b83516001600160a01b03168552938101939281019260010161115f565b916080936111b7916001600160a01b0393989796988552602085015260a0604085015260a084019061114d565b951660608201520152565b156111c957565b606460405162461bcd60e51b815260206004820152600f60248201527f496e76616c6964204164647265737300000000000000000000000000000000006044820152fdfea2646970667358221220d8a97af70c842cad09799484347f4ebf5b8875986c6c8867991aa9d4e241b03e64736f6c634300080f0033","opcodes":"PUSH1 0x80 PUSH1 0x40 MSTORE CALLVALUE PUSH3 0x414 JUMPI PUSH3 0x1731 DUP1 CODESIZE SUB DUP1 PUSH3 0x1D DUP2 PUSH3 0x419 JUMP JUMPDEST SWAP3 DUP4 CODECOPY DUP2 ADD SWAP1 PUSH1 0xA0 DUP2 DUP4 SUB SLT PUSH3 0x414 JUMPI DUP1 MLOAD PUSH1 0x1 PUSH1 0x1 PUSH1 0x40 SHL SUB SWAP2 SWAP1 DUP3 DUP2 GT PUSH3 0x414 JUMPI DUP4 PUSH3 0x50 SWAP2 DUP4 ADD PUSH3 0x455 JUMP JUMPDEST SWAP1 PUSH1 0x20 SWAP4 DUP5 DUP3 ADD MLOAD SWAP1 DUP5 DUP3 GT PUSH3 0x414 JUMPI PUSH3 0x6E SWAP2 DUP4 ADD PUSH3 0x455 JUMP JUMPDEST SWAP4 PUSH1 0x40 DUP3 ADD MLOAD SWAP1 PUSH3 0x91 PUSH1 0x80 PUSH3 0x89 PUSH1 0x60 DUP7 ADD PUSH3 0x4D8 JUMP JUMPDEST SWAP5 ADD PUSH3 0x4D8 JUMP JUMPDEST SWAP4 PUSH1 0x0 SWAP2 DUP3 SLOAD SWAP7 PUSH1 0x1 DUP1 PUSH1 0xA0 SHL SUB NOT SWAP9 CALLER DUP11 DUP11 AND OR DUP6 SSTORE PUSH1 0x1 DUP1 PUSH1 0xA0 SHL SUB SWAP9 DUP10 CALLER SWAP2 AND PUSH32 0x8BE0079C531659141344CD1FD0A4F28419497F9722A3DAAFE3B4186F6B6457E0 DUP8 PUSH1 0x40 MLOAD LOG3 DUP4 MLOAD SWAP2 DUP1 DUP4 GT PUSH3 0x400 JUMPI PUSH1 0x4 SWAP3 DUP4 SLOAD SWAP1 PUSH1 0x1 SWAP7 DUP8 DUP4 DUP2 SHR SWAP4 AND DUP1 ISZERO PUSH3 0x3F5 JUMPI JUMPDEST DUP8 DUP5 LT EQ PUSH3 0x301 JUMPI DUP2 SWAP1 PUSH1 0x1F SWAP4 DUP5 DUP2 GT PUSH3 0x3A2 JUMPI JUMPDEST POP DUP8 SWAP1 DUP5 DUP4 GT PUSH1 0x1 EQ PUSH3 0x33E JUMPI DUP11 SWAP3 PUSH3 0x332 JUMPI JUMPDEST POP POP PUSH1 0x0 NOT PUSH1 0x3 DUP4 SWAP1 SHL SHR NOT AND SWAP1 DUP8 SHL OR DUP5 SSTORE JUMPDEST DUP3 MLOAD SWAP2 DUP3 GT PUSH3 0x31F JUMPI PUSH1 0x5 SWAP3 DUP4 SLOAD DUP8 DUP2 DUP2 SHR SWAP2 AND DUP1 ISZERO PUSH3 0x314 JUMPI JUMPDEST DUP8 DUP3 LT EQ PUSH3 0x301 JUMPI SWAP1 DUP2 DUP4 DUP6 SWAP5 SWAP4 GT PUSH3 0x2AE JUMPI JUMPDEST POP DUP7 SWAP2 DUP4 GT PUSH1 0x1 EQ PUSH3 0x24A JUMPI DUP9 SWAP3 PUSH3 0x23E JUMPI JUMPDEST POP POP PUSH1 0x0 NOT PUSH1 0x3 DUP4 SWAP1 SHL SHR NOT AND SWAP1 DUP6 SHL OR SWAP1 SSTORE JUMPDEST PUSH1 0x6 SLOAD SWAP5 PUSH1 0xFF DUP7 AND PUSH1 0x4D DUP2 GT PUSH3 0x22B JUMPI PUSH1 0xA EXP SWAP2 DUP2 PUSH1 0x0 NOT DIV DUP4 GT DUP3 ISZERO ISZERO AND PUSH3 0x218 JUMPI POP PUSH1 0x40 SWAP5 SWAP4 SWAP3 SWAP2 PUSH1 0x12 SWAP2 MUL SWAP6 DUP7 PUSH1 0x3 SSTORE PUSH1 0xFF NOT AND OR PUSH1 0x6 SSTORE CALLER DUP4 MSTORE MSTORE KECCAK256 SSTORE PUSH1 0x6 SLOAD SWAP1 PUSH2 0x100 PUSH1 0x1 PUSH1 0xA8 SHL SUB SWAP1 PUSH1 0x8 SHL AND SWAP1 PUSH2 0x100 PUSH1 0x1 PUSH1 0xA8 SHL SUB NOT AND OR PUSH1 0x6 SSTORE AND SWAP1 PUSH1 0x7 SLOAD AND OR PUSH1 0x7 SSTORE PUSH1 0x40 MLOAD PUSH2 0x1243 SWAP1 DUP2 PUSH3 0x4EE DUP3 CODECOPY RETURN JUMPDEST PUSH4 0x4E487B71 PUSH1 0xE0 SHL DUP7 MSTORE PUSH1 0x11 SWAP1 MSTORE PUSH1 0x24 DUP6 REVERT JUMPDEST PUSH4 0x4E487B71 PUSH1 0xE0 SHL DUP7 MSTORE PUSH1 0x11 DUP4 MSTORE PUSH1 0x24 DUP7 REVERT JUMPDEST ADD MLOAD SWAP1 POP CODESIZE DUP1 PUSH3 0x185 JUMP JUMPDEST DUP5 DUP10 MSTORE DUP7 DUP10 KECCAK256 DUP9 SWAP5 POP SWAP2 SWAP1 PUSH1 0x1F NOT DUP5 AND DUP11 JUMPDEST DUP10 DUP3 DUP3 LT PUSH3 0x297 JUMPI POP POP DUP5 GT PUSH3 0x27D JUMPI JUMPDEST POP POP POP DUP2 SHL ADD SWAP1 SSTORE PUSH3 0x199 JUMP JUMPDEST ADD MLOAD PUSH1 0x0 NOT PUSH1 0xF8 DUP5 PUSH1 0x3 SHL AND SHR NOT AND SWAP1 SSTORE CODESIZE DUP1 DUP1 PUSH3 0x26F JUMP JUMPDEST DUP4 DUP6 ADD MLOAD DUP7 SSTORE DUP12 SWAP8 SWAP1 SWAP6 ADD SWAP5 SWAP4 DUP5 ADD SWAP4 ADD PUSH3 0x25C JUMP JUMPDEST SWAP1 SWAP2 SWAP3 POP DUP5 DUP10 MSTORE DUP7 DUP10 KECCAK256 DUP4 DUP1 DUP7 ADD DUP8 SHR DUP3 ADD SWAP3 DUP10 DUP8 LT PUSH3 0x2F7 JUMPI JUMPDEST SWAP2 DUP7 SWAP6 DUP12 SWAP3 SWAP6 SWAP5 SWAP4 ADD DUP9 SHR ADD SWAP2 JUMPDEST DUP3 DUP2 LT PUSH3 0x2E8 JUMPI POP POP PUSH3 0x170 JUMP JUMPDEST DUP12 DUP2 SSTORE DUP7 SWAP6 POP DUP11 SWAP2 ADD PUSH3 0x2D8 JUMP JUMPDEST SWAP3 POP DUP2 SWAP3 PUSH3 0x2CA JUMP JUMPDEST PUSH4 0x4E487B71 PUSH1 0xE0 SHL DUP10 MSTORE PUSH1 0x22 DUP7 MSTORE PUSH1 0x24 DUP10 REVERT JUMPDEST SWAP1 PUSH1 0x7F AND SWAP1 PUSH3 0x15A JUMP JUMPDEST PUSH4 0x4E487B71 PUSH1 0xE0 SHL DUP8 MSTORE PUSH1 0x41 DUP5 MSTORE PUSH1 0x24 DUP8 REVERT JUMPDEST ADD MLOAD SWAP1 POP CODESIZE DUP1 PUSH3 0x129 JUMP JUMPDEST DUP8 DUP12 MSTORE DUP9 DUP12 KECCAK256 DUP11 SWAP5 POP SWAP2 SWAP1 PUSH1 0x1F NOT DUP5 AND DUP13 JUMPDEST DUP12 DUP3 DUP3 LT PUSH3 0x38B JUMPI POP POP DUP5 GT PUSH3 0x371 JUMPI JUMPDEST POP POP POP DUP2 SHL ADD DUP5 SSTORE PUSH3 0x13D JUMP JUMPDEST ADD MLOAD PUSH1 0x0 NOT PUSH1 0xF8 DUP5 PUSH1 0x3 SHL AND SHR NOT AND SWAP1 SSTORE CODESIZE DUP1 DUP1 PUSH3 0x363 JUMP JUMPDEST DUP4 DUP6 ADD MLOAD DUP7 SSTORE DUP14 SWAP8 SWAP1 SWAP6 ADD SWAP5 SWAP4 DUP5 ADD SWAP4 ADD PUSH3 0x350 JUMP JUMPDEST SWAP1 SWAP2 POP DUP7 DUP11 MSTORE DUP8 DUP11 KECCAK256 DUP5 DUP1 DUP6 ADD PUSH1 0x5 SHR DUP3 ADD SWAP3 DUP11 DUP7 LT PUSH3 0x3EB JUMPI JUMPDEST SWAP2 DUP12 SWAP2 DUP7 SWAP6 SWAP5 SWAP4 ADD PUSH1 0x5 SHR ADD SWAP2 JUMPDEST DUP3 DUP2 LT PUSH3 0x3DC JUMPI POP POP PUSH3 0x113 JUMP JUMPDEST DUP13 DUP2 SSTORE DUP6 SWAP5 POP DUP12 SWAP2 ADD PUSH3 0x3CC JUMP JUMPDEST SWAP3 POP DUP2 SWAP3 PUSH3 0x3BE JUMP JUMPDEST SWAP3 PUSH1 0x7F AND SWAP3 PUSH3 0xFC JUMP JUMPDEST PUSH4 0x4E487B71 PUSH1 0xE0 SHL DUP7 MSTORE PUSH1 0x41 PUSH1 0x4 MSTORE PUSH1 0x24 DUP7 REVERT JUMPDEST PUSH1 0x0 DUP1 REVERT JUMPDEST PUSH1 0x40 MLOAD SWAP2 SWAP1 PUSH1 0x1F ADD PUSH1 0x1F NOT AND DUP3 ADD PUSH1 0x1 PUSH1 0x1 PUSH1 0x40 SHL SUB DUP2 GT DUP4 DUP3 LT OR PUSH3 0x43F JUMPI PUSH1 0x40 MSTORE JUMP JUMPDEST PUSH4 0x4E487B71 PUSH1 0xE0 SHL PUSH1 0x0 MSTORE PUSH1 0x41 PUSH1 0x4 MSTORE PUSH1 0x24 PUSH1 0x0 REVERT JUMPDEST DUP2 PUSH1 0x1F DUP3 ADD SLT ISZERO PUSH3 0x414 JUMPI DUP1 MLOAD SWAP1 PUSH1 0x1 PUSH1 0x1 PUSH1 0x40 SHL SUB DUP3 GT PUSH3 0x43F JUMPI PUSH1 0x20 SWAP1 PUSH3 0x48A PUSH1 0x1F DUP5 ADD PUSH1 0x1F NOT AND DUP4 ADD PUSH3 0x419 JUMP JUMPDEST SWAP4 DUP4 DUP6 MSTORE DUP3 DUP5 DUP4 ADD ADD GT PUSH3 0x414 JUMPI DUP3 SWAP1 PUSH1 0x0 SWAP1 JUMPDEST DUP4 DUP4 DUP4 LT PUSH3 0x4BF JUMPI POP POP GT PUSH3 0x4B5 JUMPI POP POP SWAP1 JUMP JUMPDEST PUSH1 0x0 SWAP2 DUP4 ADD ADD MSTORE SWAP1 JUMP JUMPDEST DUP2 SWAP4 POP DUP3 DUP2 SWAP4 SWAP3 ADD ADD MLOAD DUP3 DUP3 DUP9 ADD ADD MSTORE ADD DUP4 SWAP2 PUSH3 0x49F JUMP JUMPDEST MLOAD SWAP1 PUSH1 0x1 PUSH1 0x1 PUSH1 0xA0 SHL SUB DUP3 AND DUP3 SUB PUSH3 0x414 JUMPI JUMP INVALID PUSH1 0x80 PUSH1 0x40 DUP2 DUP2 MSTORE PUSH1 0x4 DUP1 CALLDATASIZE LT ISZERO PUSH2 0x15 JUMPI PUSH1 0x0 DUP1 REVERT JUMPDEST PUSH1 0x0 SWAP3 DUP4 CALLDATALOAD PUSH1 0xE0 SHR SWAP1 DUP2 PUSH4 0x6FDDE03 EQ PUSH2 0xD49 JUMPI POP DUP1 PUSH4 0x95EA7B3 EQ PUSH2 0xC8C JUMPI DUP1 PUSH4 0x18160DDD EQ PUSH2 0xC6D JUMPI DUP1 PUSH4 0x23B872DD EQ PUSH2 0xB14 JUMPI DUP1 PUSH4 0x313CE567 EQ PUSH2 0xAF2 JUMPI DUP1 PUSH4 0x42966C68 EQ PUSH2 0xA6E JUMPI DUP1 PUSH4 0x70A08231 EQ PUSH2 0xA37 JUMPI DUP1 PUSH4 0x715018A6 EQ PUSH2 0x9CE JUMPI DUP1 PUSH4 0x735DE9F7 EQ PUSH2 0x9A3 JUMPI DUP1 PUSH4 0x8DA5CB5B EQ PUSH2 0x97D JUMPI DUP1 PUSH4 0x95D89B41 EQ PUSH2 0x87B JUMPI DUP1 PUSH4 0xA6F2AE3A EQ PUSH2 0x66F JUMPI DUP1 PUSH4 0xA9059CBB EQ PUSH2 0x59F JUMPI DUP1 PUSH4 0xBEA9849E EQ PUSH2 0x520 JUMPI DUP1 PUSH4 0xC816841B EQ PUSH2 0x4F8 JUMPI DUP1 PUSH4 0xD5AED6BF EQ PUSH2 0x4A0 JUMPI DUP1 PUSH4 0xDD62ED3E EQ PUSH2 0x453 JUMPI DUP1 PUSH4 0xE4849B32 EQ PUSH2 0x1DD JUMPI PUSH4 0xF2FDE38B EQ PUSH2 0xF4 JUMPI PUSH1 0x0 DUP1 REVERT JUMPDEST CALLVALUE PUSH2 0x1D9 JUMPI PUSH1 0x20 CALLDATASIZE PUSH1 0x3 NOT ADD SLT PUSH2 0x1D9 JUMPI PUSH2 0x10D PUSH2 0xEE8 JUMP JUMPDEST PUSH2 0x115 PUSH2 0xF19 JUMP JUMPDEST PUSH1 0x1 PUSH1 0x1 PUSH1 0xA0 SHL SUB DUP1 SWAP2 AND SWAP2 DUP3 ISZERO PUSH2 0x170 JUMPI POP DUP4 SLOAD SWAP3 DUP3 PUSH20 0xFFFFFFFFFFFFFFFFFFFFFFFFFFFFFFFFFFFFFFFF NOT DUP6 AND OR DUP6 SSTORE MLOAD SWAP3 AND PUSH32 0x8BE0079C531659141344CD1FD0A4F28419497F9722A3DAAFE3B4186F6B6457E0 DUP5 DUP5 LOG3 RETURN JUMPDEST PUSH1 0x84 SWAP1 PUSH1 0x20 DUP6 MLOAD SWAP2 PUSH3 0x461BCD PUSH1 0xE5 SHL DUP4 MSTORE DUP3 ADD MSTORE PUSH1 0x26 PUSH1 0x24 DUP3 ADD MSTORE PUSH32 0x4F776E61626C653A206E6577206F776E657220697320746865207A65726F2061 PUSH1 0x44 DUP3 ADD MSTORE PUSH32 0x6464726573730000000000000000000000000000000000000000000000000000 PUSH1 0x64 DUP3 ADD MSTORE REVERT JUMPDEST DUP3 DUP1 REVERT JUMPDEST POP CALLVALUE PUSH2 0x1D9 JUMPI PUSH1 0x20 DUP1 PUSH1 0x3 NOT CALLDATASIZE ADD SLT PUSH2 0x44F JUMPI DUP2 CALLDATALOAD SWAP2 DUP3 ISZERO PUSH2 0x40E JUMPI DUP5 SWAP1 CALLER DUP3 MSTORE PUSH1 0x1 DUP4 MSTORE PUSH2 0x211 DUP5 DUP7 DUP5 KECCAK256 SLOAD LT ISZERO PUSH2 0xFBC JUMP JUMPDEST CALLER DUP3 MSTORE PUSH1 0x1 DUP4 MSTORE DUP5 DUP3 KECCAK256 PUSH2 0x226 DUP6 DUP3 SLOAD PUSH2 0x1074 JUMP JUMPDEST SWAP1 SSTORE PUSH2 0x234 DUP5 PUSH1 0x3 SLOAD PUSH2 0x1074 JUMP JUMPDEST PUSH1 0x3 SSTORE DUP5 MLOAD SWAP1 PUSH2 0x243 DUP3 PUSH2 0xE3D JUMP JUMPDEST PUSH1 0x2 DUP3 MSTORE DUP6 CALLDATASIZE DUP6 DUP5 ADD CALLDATACOPY ADDRESS PUSH2 0x257 DUP4 PUSH2 0x109E JUMP JUMPDEST MSTORE PUSH1 0x1 PUSH1 0x1 PUSH1 0xA0 SHL SUB DUP1 PUSH1 0x6 SLOAD PUSH1 0x8 SHR AND SWAP1 DUP8 MLOAD SWAP1 PUSH4 0x15AB88C9 PUSH1 0xE3 SHL DUP3 MSTORE DUP7 DUP3 DUP6 DUP2 DUP7 GAS STATICCALL SWAP2 DUP3 ISZERO PUSH2 0x404 JUMPI DUP7 SWAP3 PUSH2 0x3D5 JUMPI JUMPDEST POP PUSH2 0x295 DUP6 PUSH2 0x10C1 JUMP JUMPDEST SWAP2 AND SWAP1 MSTORE DUP7 MLOAD PUSH4 0xD06CA61F PUSH1 0xE0 SHL DUP2 MSTORE DUP7 DUP4 DUP3 ADD MSTORE DUP8 PUSH1 0x24 DUP3 ADD MSTORE DUP5 DUP2 DUP1 PUSH2 0x2C0 PUSH1 0x44 DUP3 ADD DUP9 PUSH2 0x114D JUMP JUMPDEST SUB DUP2 DUP6 GAS STATICCALL SWAP2 DUP3 ISZERO PUSH2 0x3CB JUMPI PUSH2 0x31F SWAP4 DUP7 PUSH2 0x2E5 DUP2 SWAP6 DUP12 SWAP6 DUP4 SWAP2 PUSH2 0x3B1 JUMPI JUMPDEST POP PUSH2 0x10C1 JUMP JUMPDEST MLOAD SWAP7 DUP12 MLOAD SWAP7 DUP8 SWAP6 DUP7 SWAP5 DUP6 SWAP4 PUSH32 0x8803DBEE00000000000000000000000000000000000000000000000000000000 DUP6 MSTORE TIMESTAMP SWAP3 DUP13 ADDRESS SWAP4 DUP8 ADD PUSH2 0x118A JUMP JUMPDEST SUB SWAP3 GAS CALL DUP1 ISZERO PUSH2 0x3A7 JUMPI DUP4 SWAP3 DUP4 SWAP3 DUP4 SWAP3 PUSH2 0x385 JUMPI JUMPDEST POP DUP2 DUP2 ISZERO PUSH2 0x37C JUMPI JUMPDEST CALLER SWAP1 CALL ISZERO PUSH2 0x370 JUMPI PUSH32 0x92F64CA637D023F354075A4BE751B169C1A8A9CCB6D33CDD0CB3520543995727 SWAP2 DUP4 MLOAD SWAP1 DUP2 MSTORE LOG1 MLOAD RETURN JUMPDEST POP POP MLOAD SWAP1 RETURNDATASIZE SWAP1 DUP3 RETURNDATACOPY RETURNDATASIZE SWAP1 REVERT JUMPDEST POP PUSH2 0x8FC PUSH2 0x33D JUMP JUMPDEST PUSH2 0x3A0 SWAP1 RETURNDATASIZE DUP1 DUP6 DUP4 RETURNDATACOPY PUSH2 0x398 DUP2 DUP4 PUSH2 0xE6F JUMP JUMPDEST DUP2 ADD SWAP1 PUSH2 0x10D1 JUMP JUMPDEST POP CODESIZE PUSH2 0x334 JUMP JUMPDEST DUP7 MLOAD RETURNDATASIZE DUP6 DUP3 RETURNDATACOPY RETURNDATASIZE SWAP1 REVERT JUMPDEST PUSH2 0x3C5 SWAP2 POP RETURNDATASIZE DUP1 DUP6 DUP4 RETURNDATACOPY PUSH2 0x398 DUP2 DUP4 PUSH2 0xE6F JUMP JUMPDEST CODESIZE PUSH2 0x2DF JUMP JUMPDEST DUP9 MLOAD RETURNDATASIZE DUP8 DUP3 RETURNDATACOPY RETURNDATASIZE SWAP1 REVERT JUMPDEST PUSH2 0x3F6 SWAP2 SWAP3 POP DUP8 RETURNDATASIZE DUP10 GT PUSH2 0x3FD JUMPI JUMPDEST PUSH2 0x3EE DUP2 DUP4 PUSH2 0xE6F JUMP JUMPDEST DUP2 ADD SWAP1 PUSH2 0x107F JUMP JUMPDEST SWAP1 CODESIZE PUSH2 0x28B JUMP JUMPDEST POP RETURNDATASIZE PUSH2 0x3E4 JUMP JUMPDEST DUP10 MLOAD RETURNDATASIZE DUP9 DUP3 RETURNDATACOPY RETURNDATASIZE SWAP1 REVERT JUMPDEST PUSH1 0x64 SWAP2 DUP5 MLOAD SWAP2 PUSH3 0x461BCD PUSH1 0xE5 SHL DUP4 MSTORE DUP3 ADD MSTORE PUSH1 0x13 PUSH1 0x24 DUP3 ADD MSTORE PUSH32 0x496E76616C69642073656C6C20616D6F756E7400000000000000000000000000 PUSH1 0x44 DUP3 ADD MSTORE REVERT JUMPDEST DUP4 DUP1 REVERT JUMPDEST POP POP CALLVALUE PUSH2 0x49C JUMPI DUP1 PUSH1 0x3 NOT CALLDATASIZE ADD SLT PUSH2 0x49C JUMPI DUP1 PUSH1 0x20 SWAP3 PUSH2 0x471 PUSH2 0xEE8 JUMP JUMPDEST PUSH2 0x479 PUSH2 0xF03 JUMP JUMPDEST PUSH1 0x1 PUSH1 0x1 PUSH1 0xA0 SHL SUB SWAP2 DUP3 AND DUP4 MSTORE PUSH1 0x2 DUP7 MSTORE DUP4 DUP4 KECCAK256 SWAP2 AND DUP3 MSTORE DUP5 MSTORE KECCAK256 SLOAD SWAP1 MLOAD SWAP1 DUP2 MSTORE RETURN JUMPDEST POP DUP1 REVERT JUMPDEST POP POP CALLVALUE PUSH2 0x49C JUMPI PUSH1 0x20 CALLDATASIZE PUSH1 0x3 NOT ADD SLT PUSH2 0x49C JUMPI PUSH1 0x1 PUSH1 0x1 PUSH1 0xA0 SHL SUB PUSH2 0x4C3 PUSH2 0xEE8 JUMP JUMPDEST PUSH2 0x4CB PUSH2 0xF19 JUMP JUMPDEST AND PUSH2 0x4D7 DUP2 ISZERO ISZERO PUSH2 0x11C2 JUMP JUMPDEST PUSH20 0xFFFFFFFFFFFFFFFFFFFFFFFFFFFFFFFFFFFFFFFF NOT PUSH1 0x7 SLOAD AND OR PUSH1 0x7 SSTORE MLOAD RETURN JUMPDEST POP POP CALLVALUE PUSH2 0x49C JUMPI DUP2 PUSH1 0x3 NOT CALLDATASIZE ADD SLT PUSH2 0x49C JUMPI PUSH1 0x20 SWAP1 PUSH1 0x1 PUSH1 0x1 PUSH1 0xA0 SHL SUB PUSH1 0x7 SLOAD AND SWAP1 MLOAD SWAP1 DUP2 MSTORE RETURN JUMPDEST POP POP CALLVALUE PUSH2 0x49C JUMPI PUSH1 0x20 CALLDATASIZE PUSH1 0x3 NOT ADD SLT PUSH2 0x49C JUMPI PUSH2 0x53B PUSH2 0xEE8 JUMP JUMPDEST PUSH2 0x543 PUSH2 0xF19 JUMP JUMPDEST PUSH2 0x557 PUSH1 0x1 PUSH1 0x1 PUSH1 0xA0 SHL SUB DUP3 AND ISZERO ISZERO PUSH2 0x11C2 JUMP JUMPDEST PUSH32 0xFFFFFFFFFFFFFFFFFFFFFF0000000000000000000000000000000000000000FF PUSH21 0xFFFFFFFFFFFFFFFFFFFFFFFFFFFFFFFFFFFFFFFF00 PUSH1 0x6 SLOAD SWAP3 PUSH1 0x8 SHL AND SWAP2 AND OR PUSH1 0x6 SSTORE MLOAD RETURN JUMPDEST POP POP CALLVALUE PUSH2 0x49C JUMPI DUP1 PUSH1 0x3 NOT CALLDATASIZE ADD SLT PUSH2 0x49C JUMPI PUSH2 0x5B9 PUSH2 0xEE8 JUMP JUMPDEST SWAP1 PUSH1 0x1 PUSH1 0x1 PUSH1 0xA0 SHL SUB PUSH1 0x24 CALLDATALOAD SWAP3 AND PUSH2 0x5D2 DUP2 ISZERO ISZERO PUSH2 0xF71 JUMP JUMPDEST CALLER DUP5 MSTORE PUSH1 0x1 SWAP3 DUP3 PUSH1 0x20 SWAP6 DUP6 DUP8 MSTORE PUSH2 0x5EE DUP4 DUP4 DUP4 KECCAK256 SLOAD LT ISZERO PUSH2 0xFBC JUMP JUMPDEST DUP4 DUP2 MSTORE DUP6 DUP8 MSTORE PUSH2 0x615 PUSH2 0x604 DUP5 DUP5 DUP5 KECCAK256 SLOAD PUSH2 0x1007 JUMP JUMPDEST DUP6 DUP4 MSTORE DUP8 DUP10 MSTORE DUP4 DUP4 KECCAK256 SLOAD GT ISZERO PUSH2 0x1029 JUMP JUMPDEST CALLER DUP2 MSTORE DUP6 DUP8 MSTORE DUP2 DUP2 KECCAK256 PUSH2 0x629 DUP5 DUP3 SLOAD PUSH2 0x1074 JUMP JUMPDEST SWAP1 SSTORE DUP4 DUP2 MSTORE DUP6 DUP8 MSTORE KECCAK256 PUSH2 0x63D DUP3 DUP3 SLOAD PUSH2 0x1007 JUMP JUMPDEST SWAP1 SSTORE DUP3 MLOAD SWAP1 DUP2 MSTORE PUSH32 0xDDF252AD1BE2C89B69C2B068FC378DAA952BA7F163C4A11628F55A4DF523B3EF DUP6 CALLER SWAP3 LOG3 MLOAD SWAP1 DUP2 MSTORE RETURN JUMPDEST POP DUP3 PUSH1 0x3 NOT CALLDATASIZE ADD SLT PUSH2 0x1D9 JUMPI CALLVALUE ISZERO PUSH2 0x839 JUMPI DUP2 MLOAD SWAP1 PUSH2 0x68D DUP3 PUSH2 0xE3D JUMP JUMPDEST PUSH1 0x2 DUP3 MSTORE PUSH1 0x20 SWAP1 DUP4 CALLDATASIZE DUP4 DUP6 ADD CALLDATACOPY DUP5 PUSH1 0x1 PUSH1 0x1 PUSH1 0xA0 SHL SUB SWAP4 DUP5 PUSH1 0x6 SLOAD PUSH1 0x8 SHR AND SWAP5 DUP7 MLOAD SWAP1 PUSH4 0x15AB88C9 PUSH1 0xE3 SHL DUP3 MSTORE DUP6 DUP3 DUP7 DUP2 DUP11 GAS STATICCALL SWAP2 DUP3 ISZERO PUSH2 0x82F JUMPI DUP5 SWAP3 PUSH2 0x810 JUMPI JUMPDEST POP PUSH2 0x6D9 DUP4 PUSH2 0x109E JUMP JUMPDEST SWAP2 AND SWAP1 MSTORE ADDRESS PUSH2 0x6E7 DUP3 PUSH2 0x10C1 JUMP JUMPDEST MSTORE DUP6 MLOAD SWAP5 PUSH4 0xD06CA61F PUSH1 0xE0 SHL DUP7 MSTORE CALLVALUE DUP5 DUP8 ADD MSTORE DUP7 PUSH1 0x24 DUP8 ADD MSTORE DUP3 DUP7 DUP1 PUSH2 0x710 PUSH1 0x44 DUP3 ADD DUP7 PUSH2 0x114D JUMP JUMPDEST SUB DUP2 DUP5 GAS STATICCALL SWAP6 DUP7 ISZERO PUSH2 0x806 JUMPI PUSH2 0x76C SWAP7 PUSH2 0x730 SWAP2 DUP6 SWAP2 PUSH2 0x7F2 JUMPI POP PUSH2 0x10C1 JUMP JUMPDEST MLOAD SWAP4 DUP4 DUP9 MLOAD DUP1 SWAP9 DUP2 SWAP6 DUP3 SWAP5 PUSH32 0x38ED173900000000000000000000000000000000000000000000000000000000 DUP5 MSTORE TIMESTAMP SWAP2 ADDRESS SWAP2 DUP12 CALLVALUE SWAP2 DUP8 ADD PUSH2 0x118A JUMP JUMPDEST SUB SWAP3 GAS CALL SWAP3 DUP4 ISZERO PUSH2 0x7E8 JUMPI PUSH32 0x4E08BA899977CF7D4C2964BCE71C6B9A7EF76EE5166A4C1249A1E08016E33EF1 SWAP4 PUSH2 0x7CE JUMPI JUMPDEST POP CALLER DUP6 MSTORE PUSH1 0x1 DUP3 MSTORE DUP4 DUP6 KECCAK256 PUSH2 0x7B4 DUP3 DUP3 SLOAD PUSH2 0x1007 JUMP JUMPDEST SWAP1 SSTORE PUSH2 0x7C2 DUP2 PUSH1 0x3 SLOAD PUSH2 0x1007 JUMP JUMPDEST PUSH1 0x3 SSTORE DUP4 MLOAD SWAP1 DUP2 MSTORE LOG1 MLOAD RETURN JUMPDEST PUSH2 0x7E1 SWAP1 RETURNDATASIZE DUP1 DUP9 DUP4 RETURNDATACOPY PUSH2 0x398 DUP2 DUP4 PUSH2 0xE6F JUMP JUMPDEST POP CODESIZE PUSH2 0x79E JUMP JUMPDEST DUP5 MLOAD RETURNDATASIZE DUP8 DUP3 RETURNDATACOPY RETURNDATASIZE SWAP1 REVERT JUMPDEST PUSH2 0x3C5 SWAP2 POP RETURNDATASIZE DUP1 DUP8 DUP4 RETURNDATACOPY PUSH2 0x398 DUP2 DUP4 PUSH2 0xE6F JUMP JUMPDEST DUP8 MLOAD RETURNDATASIZE DUP6 DUP3 RETURNDATACOPY RETURNDATASIZE SWAP1 REVERT JUMPDEST PUSH2 0x828 SWAP2 SWAP3 POP DUP7 RETURNDATASIZE DUP9 GT PUSH2 0x3FD JUMPI PUSH2 0x3EE DUP2 DUP4 PUSH2 0xE6F JUMP JUMPDEST SWAP1 CODESIZE PUSH2 0x6CF JUMP JUMPDEST DUP9 MLOAD RETURNDATASIZE DUP7 DUP3 RETURNDATACOPY RETURNDATASIZE SWAP1 REVERT JUMPDEST PUSH1 0x20 PUSH1 0x64 SWAP3 MLOAD SWAP2 PUSH3 0x461BCD PUSH1 0xE5 SHL DUP4 MSTORE DUP3 ADD MSTORE PUSH1 0x17 PUSH1 0x24 DUP3 ADD MSTORE PUSH32 0x496E76616C696420707572636861736520616D6F756E74000000000000000000 PUSH1 0x44 DUP3 ADD MSTORE REVERT JUMPDEST POP SWAP1 CALLVALUE PUSH2 0x1D9 JUMPI DUP3 PUSH1 0x3 NOT CALLDATASIZE ADD SLT PUSH2 0x1D9 JUMPI DUP1 MLOAD SWAP2 DUP4 PUSH1 0x5 SLOAD SWAP1 PUSH1 0x1 SWAP1 DUP3 DUP3 SHR SWAP3 DUP3 DUP2 AND DUP1 ISZERO PUSH2 0x973 JUMPI JUMPDEST PUSH1 0x20 SWAP6 DUP7 DUP7 LT DUP3 EQ PUSH2 0x960 JUMPI POP DUP5 DUP9 MSTORE SWAP1 DUP2 ISZERO PUSH2 0x93E JUMPI POP PUSH1 0x1 EQ PUSH2 0x8E5 JUMPI JUMPDEST PUSH2 0x8E1 DUP7 DUP7 PUSH2 0x8D7 DUP3 DUP12 SUB DUP4 PUSH2 0xE6F JUMP JUMPDEST MLOAD SWAP2 DUP3 SWAP2 DUP3 PUSH2 0xE91 JUMP JUMPDEST SUB SWAP1 RETURN JUMPDEST SWAP3 SWAP6 POP PUSH1 0x5 DUP4 MSTORE PUSH32 0x36B6384B5ECA791C62761152D0C79BB0604C104A5FB6F4EB0703F3154BB3DB0 JUMPDEST DUP3 DUP5 LT PUSH2 0x92B JUMPI POP POP POP DUP3 PUSH2 0x8E1 SWAP5 PUSH2 0x8D7 SWAP3 DUP3 ADD ADD SWAP5 CODESIZE PUSH2 0x8C6 JUMP JUMPDEST DUP1 SLOAD DUP7 DUP6 ADD DUP9 ADD MSTORE SWAP3 DUP7 ADD SWAP3 DUP2 ADD PUSH2 0x90E JUMP JUMPDEST PUSH1 0xFF NOT AND DUP8 DUP7 ADD MSTORE POP POP POP ISZERO ISZERO PUSH1 0x5 SHL DUP4 ADD ADD SWAP3 POP PUSH2 0x8D7 DUP3 PUSH2 0x8E1 CODESIZE PUSH2 0x8C6 JUMP JUMPDEST DUP4 PUSH1 0x22 PUSH1 0x24 SWAP3 PUSH4 0x4E487B71 PUSH1 0xE0 SHL DUP4 MSTORE MSTORE REVERT JUMPDEST SWAP4 PUSH1 0x7F AND SWAP4 PUSH2 0x8A6 JUMP JUMPDEST POP POP CALLVALUE PUSH2 0x49C JUMPI DUP2 PUSH1 0x3 NOT CALLDATASIZE ADD SLT PUSH2 0x49C JUMPI PUSH1 0x1 PUSH1 0x1 PUSH1 0xA0 SHL SUB PUSH1 0x20 SWAP3 SLOAD AND SWAP1 MLOAD SWAP1 DUP2 MSTORE RETURN JUMPDEST POP POP CALLVALUE PUSH2 0x49C JUMPI DUP2 PUSH1 0x3 NOT CALLDATASIZE ADD SLT PUSH2 0x49C JUMPI PUSH1 0x20 SWAP1 PUSH1 0x1 PUSH1 0x1 PUSH1 0xA0 SHL SUB PUSH1 0x6 SLOAD PUSH1 0x8 SHR AND SWAP1 MLOAD SWAP1 DUP2 MSTORE RETURN JUMPDEST POP POP CALLVALUE PUSH2 0x49C JUMPI DUP2 PUSH1 0x3 NOT CALLDATASIZE ADD SLT PUSH2 0x49C JUMPI PUSH2 0x9E8 PUSH2 0xF19 JUMP JUMPDEST DUP2 PUSH1 0x1 PUSH1 0x1 PUSH1 0xA0 SHL SUB DUP2 SLOAD SWAP3 PUSH20 0xFFFFFFFFFFFFFFFFFFFFFFFFFFFFFFFFFFFFFFFF NOT DUP5 AND DUP4 SSTORE MLOAD SWAP3 AND PUSH32 0x8BE0079C531659141344CD1FD0A4F28419497F9722A3DAAFE3B4186F6B6457E0 DUP3 DUP5 LOG3 RETURN JUMPDEST POP POP CALLVALUE PUSH2 0x49C JUMPI PUSH1 0x20 CALLDATASIZE PUSH1 0x3 NOT ADD SLT PUSH2 0x49C JUMPI DUP1 PUSH1 0x20 SWAP3 PUSH1 0x1 PUSH1 0x1 PUSH1 0xA0 SHL SUB PUSH2 0xA5E PUSH2 0xEE8 JUMP JUMPDEST AND DUP2 MSTORE PUSH1 0x1 DUP5 MSTORE KECCAK256 SLOAD SWAP1 MLOAD SWAP1 DUP2 MSTORE RETURN JUMPDEST POP CALLVALUE PUSH2 0x1D9 JUMPI PUSH1 0x20 CALLDATASIZE PUSH1 0x3 NOT ADD SLT PUSH2 0x1D9 JUMPI SWAP2 DUP2 PUSH1 0x20 SWAP4 CALLDATALOAD SWAP2 CALLER DUP2 MSTORE PUSH1 0x1 DUP6 MSTORE PUSH2 0xA9D DUP4 DUP4 DUP4 KECCAK256 SLOAD LT ISZERO PUSH2 0xFBC JUMP JUMPDEST CALLER DUP2 MSTORE PUSH1 0x1 DUP6 MSTORE KECCAK256 PUSH2 0xAB0 DUP3 DUP3 SLOAD PUSH2 0x1074 JUMP JUMPDEST SWAP1 SSTORE PUSH2 0xABE DUP2 PUSH1 0x3 SLOAD PUSH2 0x1074 JUMP JUMPDEST PUSH1 0x3 SSTORE DUP2 MLOAD SWAP1 DUP2 MSTORE PUSH32 0xCC16F5DBB4873280815C1EE09DBD06736CFFCC184412CF7A71A0FDB75D397CA5 DUP4 CALLER SWAP3 LOG2 MLOAD PUSH1 0x1 DUP2 MSTORE RETURN JUMPDEST POP POP CALLVALUE PUSH2 0x49C JUMPI DUP2 PUSH1 0x3 NOT CALLDATASIZE ADD SLT PUSH2 0x49C JUMPI PUSH1 0x20 SWAP1 PUSH1 0xFF PUSH1 0x6 SLOAD AND SWAP1 MLOAD SWAP1 DUP2 MSTORE RETURN JUMPDEST POP SWAP2 SWAP1 CALLVALUE PUSH2 0x49C JUMPI PUSH1 0x60 CALLDATASIZE PUSH1 0x3 NOT ADD SLT PUSH2 0x49C JUMPI PUSH2 0xB30 PUSH2 0xEE8 JUMP JUMPDEST PUSH2 0xB38 PUSH2 0xF03 JUMP JUMPDEST PUSH1 0x44 CALLDATALOAD SWAP1 PUSH1 0x1 PUSH1 0x1 PUSH1 0xA0 SHL SUB DUP1 SWAP2 AND SWAP3 PUSH2 0xB53 DUP5 ISZERO ISZERO PUSH2 0xF71 JUMP JUMPDEST AND SWAP1 DUP2 DUP6 MSTORE PUSH1 0x1 SWAP5 PUSH1 0x20 SWAP7 DUP7 DUP9 MSTORE PUSH2 0xB70 DUP4 DUP8 DUP5 KECCAK256 SLOAD LT ISZERO PUSH2 0xFBC JUMP JUMPDEST DUP4 DUP3 MSTORE PUSH1 0x2 DUP9 MSTORE DUP6 DUP3 KECCAK256 CALLER DUP4 MSTORE DUP9 MSTORE DUP3 DUP7 DUP4 KECCAK256 SLOAD LT PUSH2 0xC2B JUMPI POP PUSH32 0xDDF252AD1BE2C89B69C2B068FC378DAA952BA7F163C4A11628F55A4DF523B3EF SWAP2 DUP6 DUP3 DUP7 DUP11 SWAP5 MSTORE DUP9 DUP5 MSTORE PUSH2 0xBD6 PUSH2 0xBC5 DUP5 DUP5 DUP5 KECCAK256 SLOAD PUSH2 0x1007 JUMP JUMPDEST DUP9 DUP4 MSTORE DUP11 DUP7 MSTORE DUP4 DUP4 KECCAK256 SLOAD GT ISZERO PUSH2 0x1029 JUMP JUMPDEST DUP6 DUP2 MSTORE DUP9 DUP5 MSTORE DUP2 DUP2 KECCAK256 PUSH2 0xBEA DUP5 DUP3 SLOAD PUSH2 0x1074 JUMP JUMPDEST SWAP1 SSTORE DUP7 DUP2 MSTORE DUP9 DUP5 MSTORE DUP2 DUP2 KECCAK256 PUSH2 0xC00 DUP5 DUP3 SLOAD PUSH2 0x1007 JUMP JUMPDEST SWAP1 SSTORE DUP6 DUP2 MSTORE PUSH1 0x2 DUP5 MSTORE DUP2 DUP2 KECCAK256 CALLER DUP3 MSTORE DUP5 MSTORE KECCAK256 PUSH2 0xC1D DUP3 DUP3 SLOAD PUSH2 0x1074 JUMP JUMPDEST SWAP1 SSTORE DUP6 MLOAD SWAP1 DUP2 MSTORE LOG3 MLOAD SWAP1 DUP2 MSTORE RETURN JUMPDEST PUSH1 0x64 SWAP1 DUP9 DUP8 MLOAD SWAP2 PUSH3 0x461BCD PUSH1 0xE5 SHL DUP4 MSTORE DUP3 ADD MSTORE PUSH1 0x16 PUSH1 0x24 DUP3 ADD MSTORE PUSH32 0x496E73756666696369656E7420616C6C6F77616E636500000000000000000000 PUSH1 0x44 DUP3 ADD MSTORE REVERT JUMPDEST POP POP CALLVALUE PUSH2 0x49C JUMPI DUP2 PUSH1 0x3 NOT CALLDATASIZE ADD SLT PUSH2 0x49C JUMPI PUSH1 0x20 SWAP1 PUSH1 0x3 SLOAD SWAP1 MLOAD SWAP1 DUP2 MSTORE RETURN JUMPDEST POP SWAP2 CALLVALUE PUSH2 0xD46 JUMPI DUP2 PUSH1 0x3 NOT CALLDATASIZE ADD SLT PUSH2 0xD46 JUMPI PUSH2 0xCA6 PUSH2 0xEE8 JUMP JUMPDEST PUSH1 0x1 PUSH1 0x1 PUSH1 0xA0 SHL SUB PUSH1 0x24 CALLDATALOAD SWAP2 AND SWAP2 DUP3 ISZERO PUSH2 0xD03 JUMPI PUSH1 0x20 SWAP5 POP DUP4 DUP3 SWAP2 CALLER DUP2 MSTORE PUSH1 0x2 DUP8 MSTORE DUP2 DUP2 KECCAK256 DUP6 DUP3 MSTORE DUP8 MSTORE KECCAK256 SSTORE DUP3 MLOAD SWAP1 DUP2 MSTORE PUSH32 0x8C5BE1E5EBEC7D5BD14F71427D1E84F3DD0314C0F7B2291E5B200AC8C7C3B925 DUP5 CALLER SWAP3 LOG3 MLOAD PUSH1 0x1 DUP2 MSTORE RETURN JUMPDEST PUSH1 0x64 DUP6 PUSH1 0x20 DUP7 MLOAD SWAP2 PUSH3 0x461BCD PUSH1 0xE5 SHL DUP4 MSTORE DUP3 ADD MSTORE PUSH1 0x17 PUSH1 0x24 DUP3 ADD MSTORE PUSH32 0x496E76616C6964207370656E6465722061646472657373000000000000000000 PUSH1 0x44 DUP3 ADD MSTORE REVERT JUMPDEST DUP1 REVERT JUMPDEST SWAP1 POP DUP3 DUP5 CALLVALUE PUSH2 0xD46 JUMPI DUP1 PUSH1 0x3 NOT CALLDATASIZE ADD SLT PUSH2 0xD46 JUMPI DUP1 SWAP4 DUP1 SLOAD SWAP2 PUSH1 0x1 SWAP1 DUP4 DUP3 SHR SWAP3 DUP3 DUP6 AND SWAP5 DUP6 ISZERO PUSH2 0xE33 JUMPI JUMPDEST PUSH1 0x20 SWAP6 DUP7 DUP7 LT DUP2 EQ PUSH2 0xE20 JUMPI DUP6 DUP10 MSTORE SWAP1 DUP2 ISZERO PUSH2 0xDFC JUMPI POP PUSH1 0x1 EQ PUSH2 0xDA4 JUMPI JUMPDEST PUSH2 0x8E1 DUP8 DUP8 PUSH2 0x8D7 DUP3 DUP13 SUB DUP4 PUSH2 0xE6F JUMP JUMPDEST DUP2 MSTORE SWAP3 SWAP6 POP PUSH32 0x8A35ACFBC15FF81A39AE7D344FD709F28E8600B4AA8C65C6B64BFE7FE36BD19B JUMPDEST DUP3 DUP5 LT PUSH2 0xDE9 JUMPI POP POP POP DUP3 PUSH2 0x8E1 SWAP5 PUSH2 0x8D7 SWAP3 DUP3 ADD ADD SWAP5 DUP7 DUP1 PUSH2 0xD93 JUMP JUMPDEST DUP1 SLOAD DUP7 DUP6 ADD DUP9 ADD MSTORE SWAP3 DUP7 ADD SWAP3 DUP2 ADD PUSH2 0xDCB JUMP JUMPDEST PUSH1 0xFF NOT AND DUP9 DUP8 ADD MSTORE POP POP POP POP ISZERO ISZERO PUSH1 0x5 SHL DUP4 ADD ADD SWAP3 POP PUSH2 0x8D7 DUP3 PUSH2 0x8E1 DUP7 DUP1 PUSH2 0xD93 JUMP JUMPDEST PUSH1 0x24 DUP5 PUSH1 0x22 DUP6 PUSH4 0x4E487B71 PUSH1 0xE0 SHL DUP4 MSTORE MSTORE REVERT JUMPDEST SWAP4 PUSH1 0x7F AND SWAP4 PUSH2 0xD74 JUMP JUMPDEST PUSH1 0x60 DUP2 ADD SWAP1 DUP2 LT PUSH8 0xFFFFFFFFFFFFFFFF DUP3 GT OR PUSH2 0xE59 JUMPI PUSH1 0x40 MSTORE JUMP JUMPDEST PUSH4 0x4E487B71 PUSH1 0xE0 SHL PUSH1 0x0 MSTORE PUSH1 0x41 PUSH1 0x4 MSTORE PUSH1 0x24 PUSH1 0x0 REVERT JUMPDEST SWAP1 PUSH1 0x1F DUP1 NOT SWAP2 ADD AND DUP2 ADD SWAP1 DUP2 LT PUSH8 0xFFFFFFFFFFFFFFFF DUP3 GT OR PUSH2 0xE59 JUMPI PUSH1 0x40 MSTORE JUMP JUMPDEST SWAP2 SWAP1 SWAP2 PUSH1 0x20 DUP1 DUP3 MSTORE DUP4 MLOAD SWAP1 DUP2 DUP2 DUP5 ADD MSTORE PUSH1 0x0 SWAP5 JUMPDEST DUP3 DUP7 LT PUSH2 0xED2 JUMPI POP POP DUP1 PUSH1 0x40 SWAP4 SWAP5 GT PUSH2 0xEC5 JUMPI JUMPDEST PUSH1 0x1F ADD PUSH1 0x1F NOT AND ADD ADD SWAP1 JUMP JUMPDEST PUSH1 0x0 DUP4 DUP3 DUP5 ADD ADD MSTORE PUSH2 0xEB9 JUMP JUMPDEST DUP6 DUP2 ADD DUP3 ADD MLOAD DUP5 DUP8 ADD PUSH1 0x40 ADD MSTORE SWAP5 DUP2 ADD SWAP5 PUSH2 0xEA5 JUMP JUMPDEST PUSH1 0x4 CALLDATALOAD SWAP1 PUSH1 0x1 PUSH1 0x1 PUSH1 0xA0 SHL SUB DUP3 AND DUP3 SUB PUSH2 0xEFE JUMPI JUMP JUMPDEST PUSH1 0x0 DUP1 REVERT JUMPDEST PUSH1 0x24 CALLDATALOAD SWAP1 PUSH1 0x1 PUSH1 0x1 PUSH1 0xA0 SHL SUB DUP3 AND DUP3 SUB PUSH2 0xEFE JUMPI JUMP JUMPDEST PUSH1 0x1 PUSH1 0x1 PUSH1 0xA0 SHL SUB PUSH1 0x0 SLOAD AND CALLER SUB PUSH2 0xF2D JUMPI JUMP JUMPDEST PUSH1 0x64 PUSH1 0x40 MLOAD PUSH3 0x461BCD PUSH1 0xE5 SHL DUP2 MSTORE PUSH1 0x20 PUSH1 0x4 DUP3 ADD MSTORE PUSH1 0x20 PUSH1 0x24 DUP3 ADD MSTORE PUSH32 0x4F776E61626C653A2063616C6C6572206973206E6F7420746865206F776E6572 PUSH1 0x44 DUP3 ADD MSTORE REVERT JUMPDEST ISZERO PUSH2 0xF78 JUMPI JUMP JUMPDEST PUSH1 0x64 PUSH1 0x40 MLOAD PUSH3 0x461BCD PUSH1 0xE5 SHL DUP2 MSTORE PUSH1 0x20 PUSH1 0x4 DUP3 ADD MSTORE PUSH1 0x19 PUSH1 0x24 DUP3 ADD MSTORE PUSH32 0x496E76616C696420726563697069656E74206164647265737300000000000000 PUSH1 0x44 DUP3 ADD MSTORE REVERT JUMPDEST ISZERO PUSH2 0xFC3 JUMPI JUMP JUMPDEST PUSH1 0x64 PUSH1 0x40 MLOAD PUSH3 0x461BCD PUSH1 0xE5 SHL DUP2 MSTORE PUSH1 0x20 PUSH1 0x4 DUP3 ADD MSTORE PUSH1 0x14 PUSH1 0x24 DUP3 ADD MSTORE PUSH32 0x496E73756666696369656E742062616C616E6365000000000000000000000000 PUSH1 0x44 DUP3 ADD MSTORE REVERT JUMPDEST DUP2 NOT DUP2 GT PUSH2 0x1013 JUMPI ADD SWAP1 JUMP JUMPDEST PUSH4 0x4E487B71 PUSH1 0xE0 SHL PUSH1 0x0 MSTORE PUSH1 0x11 PUSH1 0x4 MSTORE PUSH1 0x24 PUSH1 0x0 REVERT JUMPDEST ISZERO PUSH2 0x1030 JUMPI JUMP JUMPDEST PUSH1 0x64 PUSH1 0x40 MLOAD PUSH3 0x461BCD PUSH1 0xE5 SHL DUP2 MSTORE PUSH1 0x20 PUSH1 0x4 DUP3 ADD MSTORE PUSH1 0x16 PUSH1 0x24 DUP3 ADD MSTORE PUSH32 0x496E7465676572206F766572666C6F77206572726F7200000000000000000000 PUSH1 0x44 DUP3 ADD MSTORE REVERT JUMPDEST DUP2 DUP2 LT PUSH2 0x1013 JUMPI SUB SWAP1 JUMP JUMPDEST SWAP1 DUP2 PUSH1 0x20 SWAP2 SUB SLT PUSH2 0xEFE JUMPI MLOAD PUSH1 0x1 PUSH1 0x1 PUSH1 0xA0 SHL SUB DUP2 AND DUP2 SUB PUSH2 0xEFE JUMPI SWAP1 JUMP JUMPDEST DUP1 MLOAD ISZERO PUSH2 0x10AB JUMPI PUSH1 0x20 ADD SWAP1 JUMP JUMPDEST PUSH4 0x4E487B71 PUSH1 0xE0 SHL PUSH1 0x0 MSTORE PUSH1 0x32 PUSH1 0x4 MSTORE PUSH1 0x24 PUSH1 0x0 REVERT JUMPDEST DUP1 MLOAD PUSH1 0x1 LT ISZERO PUSH2 0x10AB JUMPI PUSH1 0x40 ADD SWAP1 JUMP JUMPDEST SWAP1 PUSH1 0x20 SWAP1 DUP2 DUP4 DUP3 SUB SLT PUSH2 0xEFE JUMPI DUP3 MLOAD PUSH8 0xFFFFFFFFFFFFFFFF SWAP4 DUP5 DUP3 GT PUSH2 0xEFE JUMPI ADD DUP2 PUSH1 0x1F DUP3 ADD SLT ISZERO PUSH2 0xEFE JUMPI DUP1 MLOAD SWAP4 DUP5 GT PUSH2 0xE59 JUMPI DUP4 PUSH1 0x5 SHL SWAP1 PUSH1 0x40 MLOAD SWAP5 PUSH2 0x111B DUP6 DUP5 ADD DUP8 PUSH2 0xE6F JUMP JUMPDEST DUP6 MSTORE DUP4 DUP1 DUP7 ADD SWAP3 DUP3 ADD ADD SWAP3 DUP4 GT PUSH2 0xEFE JUMPI DUP4 ADD SWAP1 JUMPDEST DUP3 DUP3 LT PUSH2 0x113E JUMPI POP POP POP POP SWAP1 JUMP JUMPDEST DUP2 MLOAD DUP2 MSTORE SWAP1 DUP4 ADD SWAP1 DUP4 ADD PUSH2 0x1130 JUMP JUMPDEST SWAP1 DUP2 MLOAD DUP1 DUP3 MSTORE PUSH1 0x20 DUP1 DUP1 SWAP4 ADD SWAP4 ADD SWAP2 PUSH1 0x0 JUMPDEST DUP3 DUP2 LT PUSH2 0x116D JUMPI POP POP POP POP SWAP1 JUMP JUMPDEST DUP4 MLOAD PUSH1 0x1 PUSH1 0x1 PUSH1 0xA0 SHL SUB AND DUP6 MSTORE SWAP4 DUP2 ADD SWAP4 SWAP3 DUP2 ADD SWAP3 PUSH1 0x1 ADD PUSH2 0x115F JUMP JUMPDEST SWAP2 PUSH1 0x80 SWAP4 PUSH2 0x11B7 SWAP2 PUSH1 0x1 PUSH1 0x1 PUSH1 0xA0 SHL SUB SWAP4 SWAP9 SWAP8 SWAP7 SWAP9 DUP6 MSTORE PUSH1 0x20 DUP6 ADD MSTORE PUSH1 0xA0 PUSH1 0x40 DUP6 ADD MSTORE PUSH1 0xA0 DUP5 ADD SWAP1 PUSH2 0x114D JUMP JUMPDEST SWAP6 AND PUSH1 0x60 DUP3 ADD MSTORE ADD MSTORE JUMP JUMPDEST ISZERO PUSH2 0x11C9 JUMPI JUMP JUMPDEST PUSH1 0x64 PUSH1 0x40 MLOAD PUSH3 0x461BCD PUSH1 0xE5 SHL DUP2 MSTORE PUSH1 0x20 PUSH1 0x4 DUP3 ADD MSTORE PUSH1 0xF PUSH1 0x24 DUP3 ADD MSTORE PUSH32 0x496E76616C696420416464726573730000000000000000000000000000000000 PUSH1 0x44 DUP3 ADD MSTORE REVERT INVALID LOG2 PUSH5 0x6970667358 0x22 SLT KECCAK256 0xD8 0xA9 PUSH27 0xF70C842CAD09799484347F4EBF5B8875986C6C8867991AA9D4E241 0xB0 RETURNDATACOPY PUSH5 0x736F6C6343 STOP ADDMOD 0xF STOP CALLER "},"methodIdentifiers":{"allowance(address,address)":"dd62ed3e","approve(address,uint256)":"095ea7b3","balanceOf(address)":"70a08231","burn(uint256)":"42966c68","buy()":"a6f2ae3a","decimals()":"313ce567","name()":"06fdde03","owner()":"8da5cb5b","renounceOwnership()":"715018a6","sell(uint256)":"e4849b32","setUniswapPair(address)":"d5aed6bf","setUniswapRouter(address)":"bea9849e","symbol()":"95d89b41","totalSupply()":"18160ddd","transfer(address,uint256)":"a9059cbb","transferFrom(address,address,uint256)":"23b872dd","transferOwnership(address)":"f2fde38b","uniswapPair()":"c816841b","uniswapRouter()":"735de9f7"}}}}}