{
  "_format": "hh-sol-artifact-1",
  "contractName": "TokenBurn",
  "sourceName": "contracts/TokenBurn.sol",
  "abi": [
    {
      "inputs": [
        {
          "internalType": "string",
          "name": "_name",
          "type": "string"
        },
        {
          "internalType": "string",
          "name": "_symbol",
          "type": "string"
        },
        {
          "internalType": "uint256",
          "name": "_initialSupply",
          "type": "uint256"
        },
        {
          "internalType": "address",
          "name": "_uniswapRouter",
          "type": "address"
        },
        {
          "internalType": "address",
          "name": "_uniswapPair",
          "type": "address"
        }
      ],
      "stateMutability": "nonpayable",
      "type": "constructor"
    },
    {
      "anonymous": false,
      "inputs": [
        {
          "indexed": true,
          "internalType": "address",
          "name": "owner",
          "type": "address"
        },
        {
          "indexed": true,
          "internalType": "address",
          "name": "spender",
          "type": "address"
        },
        {
          "indexed": false,
          "internalType": "uint256",
          "name": "value",
          "type": "uint256"
        }
      ],
      "name": "Approval",
      "type": "event"
    },
    {
      "anonymous": false,
      "inputs": [
        {
          "indexed": false,
          "internalType": "uint256",
          "name": "amount",
          "type": "uint256"
        }
      ],
      "name": "Bought",
      "type": "event"
    },
    {
      "anonymous": false,
      "inputs": [
        {
          "indexed": true,
          "internalType": "address",
          "name": "burner",
          "type": "address"
        },
        {
          "indexed": false,
          "internalType": "uint256",
          "name": "value",
          "type": "uint256"
        }
      ],
      "name": "Burn",
      "type": "event"
    },
    {
      "anonymous": false,
      "inputs": [
        {
          "indexed": true,
          "internalType": "address",
          "name": "previousOwner",
          "type": "address"
        },
        {
          "indexed": true,
          "internalType": "address",
          "name": "newOwner",
          "type": "address"
        }
      ],
      "name": "OwnershipTransferred",
      "type": "event"
    },
    {
      "anonymous": false,
      "inputs": [
        {
          "indexed": false,
          "internalType": "uint256",
          "name": "amount",
          "type": "uint256"
        }
      ],
      "name": "Sold",
      "type": "event"
    },
    {
      "anonymous": false,
      "inputs": [
        {
          "indexed": true,
          "internalType": "address",
          "name": "from",
          "type": "address"
        },
        {
          "indexed": true,
          "internalType": "address",
          "name": "to",
          "type": "address"
        },
        {
          "indexed": false,
          "internalType": "uint256",
          "name": "value",
          "type": "uint256"
        }
      ],
      "name": "Transfer",
      "type": "event"
    },
    {
      "inputs": [
        {
          "internalType": "address",
          "name": "",
          "type": "address"
        },
        {
          "internalType": "address",
          "name": "",
          "type": "address"
        }
      ],
      "name": "allowance",
      "outputs": [
        {
          "internalType": "uint256",
          "name": "",
          "type": "uint256"
        }
      ],
      "stateMutability": "view",
      "type": "function"
    },
    {
      "inputs": [
        {
          "internalType": "address",
          "name": "_spender",
          "type": "address"
        },
        {
          "internalType": "uint256",
          "name": "_value",
          "type": "uint256"
        }
      ],
      "name": "approve",
      "outputs": [
        {
          "internalType": "bool",
          "name": "success",
          "type": "bool"
        }
      ],
      "stateMutability": "nonpayable",
      "type": "function"
    },
    {
      "inputs": [
        {
          "internalType": "address",
          "name": "",
          "type": "address"
        }
      ],
      "name": "balanceOf",
      "outputs": [
        {
          "internalType": "uint256",
          "name": "",
          "type": "uint256"
        }
      ],
      "stateMutability": "view",
      "type": "function"
    },
    {
      "inputs": [
        {
          "internalType": "uint256",
          "name": "_value",
          "type": "uint256"
        }
      ],
      "name": "burn",
      "outputs": [
        {
          "internalType": "bool",
          "name": "success",
          "type": "bool"
        }
      ],
      "stateMutability": "nonpayable",
      "type": "function"
    },
    {
      "inputs": [],
      "name": "buy",
      "outputs": [],
      "stateMutability": "payable",
      "type": "function"
    },
    {
      "inputs": [],
      "name": "decimals",
      "outputs": [
        {
          "internalType": "uint8",
          "name": "",
          "type": "uint8"
        }
      ],
      "stateMutability": "view",
      "type": "function"
    },
    {
      "inputs": [],
      "name": "name",
      "outputs": [
        {
          "internalType": "string",
          "name": "",
          "type": "string"
        }
      ],
      "stateMutability": "view",
      "type": "function"
    },
    {
      "inputs": [],
      "name": "owner",
      "outputs": [
        {
          "internalType": "address",
          "name": "",
          "type": "address"
        }
      ],
      "stateMutability": "view",
      "type": "function"
    },
    {
      "inputs": [],
      "name": "renounceOwnership",
      "outputs": [],
      "stateMutability": "nonpayable",
      "type": "function"
    },
    {
      "inputs": [
        {
          "internalType": "uint256",
          "name": "_amount",
          "type": "uint256"
        }
      ],
      "name": "sell",
      "outputs": [],
      "stateMutability": "nonpayable",
      "type": "function"
    },
    {
      "inputs": [
        {
          "internalType": "address",
          "name": "addre",
          "type": "address"
        }
      ],
      "name": "setUniswapPair",
      "outputs": [],
      "stateMutability": "nonpayable",
      "type": "function"
    },
    {
      "inputs": [
        {
          "internalType": "address",
          "name": "addre",
          "type": "address"
        }
      ],
      "name": "setUniswapRouter",
      "outputs": [],
      "stateMutability": "nonpayable",
      "type": "function"
    },
    {
      "inputs": [],
      "name": "symbol",
      "outputs": [
        {
          "internalType": "string",
          "name": "",
          "type": "string"
        }
      ],
      "stateMutability": "view",
      "type": "function"
    },
    {
      "inputs": [],
      "name": "totalSupply",
      "outputs": [
        {
          "internalType": "uint256",
          "name": "",
          "type": "uint256"
        }
      ],
      "stateMutability": "view",
      "type": "function"
    },
    {
      "inputs": [
        {
          "internalType": "address",
          "name": "_to",
          "type": "address"
        },
        {
          "internalType": "uint256",
          "name": "_value",
          "type": "uint256"
        }
      ],
      "name": "transfer",
      "outputs": [
        {
          "internalType": "bool",
          "name": "success",
          "type": "bool"
        }
      ],
      "stateMutability": "nonpayable",
      "type": "function"
    },
    {
      "inputs": [
        {
          "internalType": "address",
          "name": "_from",
          "type": "address"
        },
        {
          "internalType": "address",
          "name": "_to",
          "type": "address"
        },
        {
          "internalType": "uint256",
          "name": "_value",
          "type": "uint256"
        }
      ],
      "name": "transferFrom",
      "outputs": [
        {
          "internalType": "bool",
          "name": "success",
          "type": "bool"
        }
      ],
      "stateMutability": "nonpayable",
      "type": "function"
    },
    {
      "inputs": [
        {
          "internalType": "address",
          "name": "newOwner",
          "type": "address"
        }
      ],
      "name": "transferOwnership",
      "outputs": [],
      "stateMutability": "nonpayable",
      "type": "function"
    },
    {
      "inputs": [],
      "name": "uniswapPair",
      "outputs": [
        {
          "internalType": "address",
          "name": "",
          "type": "address"
        }
      ],
      "stateMutability": "view",
      "type": "function"
    },
    {
      "inputs": [],
      "name": "uniswapRouter",
      "outputs": [
        {
          "internalType": "address",
          "name": "",
          "type": "address"
        }
      ],
      "stateMutability": "view",
      "type": "function"
    }
  ],
  "bytecode": "0x608060405234620004145762001731803803806200001d8162000419565b92833981019060a081830312620004145780516001600160401b0391908281116200041457836200005091830162000455565b90602093848201519084821162000414576200006e91830162000455565b936040820151906200009160806200008960608601620004d8565b9401620004d8565b9360009182549660018060a01b031998338a8a1617855560018060a01b0398893391167f8be0079c531659141344cd1fd0a4f28419497f9722a3daafe3b4186f6b6457e087604051a383519180831162000400576004928354906001968783811c93168015620003f5575b8784101462000301578190601f93848111620003a2575b5087908483116001146200033e578a9262000332575b5050600019600383901b1c191690871b1784555b82519182116200031f5760059283548781811c9116801562000314575b87821014620003015790818385949311620002ae575b50869183116001146200024a5788926200023e575b5050600019600383901b1c191690851b1790555b6006549460ff8616604d81116200022b57600a0a91816000190483118215151662000218575060409493929160129102958660035560ff19161760065533835252205560065490610100600160a81b039060081b1690610100600160a81b03191617600655169060075416176007556040516112439081620004ee8239f35b634e487b7160e01b865260119052602485fd5b634e487b7160e01b865260118352602486fd5b01519050388062000185565b8489528689208894509190601f1984168a5b898282106200029757505084116200027d575b505050811b01905562000199565b015160001960f88460031b161c191690553880806200026f565b8385015186558b979095019493840193016200025c565b9091925084895286892083808601871c820192898710620002f7575b9186958b9295949301881c01915b828110620002e857505062000170565b8b81558695508a9101620002d8565b92508192620002ca565b634e487b7160e01b895260228652602489fd5b90607f16906200015a565b634e487b7160e01b875260418452602487fd5b01519050388062000129565b878b52888b208a94509190601f1984168c5b8b8282106200038b575050841162000371575b505050811b0184556200013d565b015160001960f88460031b161c1916905538808062000363565b8385015186558d9790950194938401930162000350565b909150868a52878a208480850160051c8201928a8610620003eb575b918b91869594930160051c01915b828110620003dc57505062000113565b8c81558594508b9101620003cc565b92508192620003be565b92607f1692620000fc565b634e487b7160e01b86526041600452602486fd5b600080fd5b6040519190601f01601f191682016001600160401b038111838210176200043f57604052565b634e487b7160e01b600052604160045260246000fd5b81601f8201121562000414578051906001600160401b0382116200043f576020906200048a601f8401601f1916830162000419565b93838552828483010111620004145782906000905b83838310620004bf57505011620004b557505090565b6000918301015290565b819350828193920101518282880101520183916200049f565b51906001600160a01b0382168203620004145756fe6080604081815260048036101561001557600080fd5b600092833560e01c90816306fdde0314610d4957508063095ea7b314610c8c57806318160ddd14610c6d57806323b872dd14610b14578063313ce56714610af257806342966c6814610a6e57806370a0823114610a37578063715018a6146109ce578063735de9f7146109a35780638da5cb5b1461097d57806395d89b411461087b578063a6f2ae3a1461066f578063a9059cbb1461059f578063bea9849e14610520578063c816841b146104f8578063d5aed6bf146104a0578063dd62ed3e14610453578063e4849b32146101dd5763f2fde38b146100f457600080fd5b346101d95760203660031901126101d95761010d610ee8565b610115610f19565b6001600160a01b0380911691821561017057508354928273ffffffffffffffffffffffffffffffffffffffff1985161785555192167f8be0079c531659141344cd1fd0a4f28419497f9722a3daafe3b4186f6b6457e08484a3f35b608490602085519162461bcd60e51b8352820152602660248201527f4f776e61626c653a206e6577206f776e657220697320746865207a65726f206160448201527f64647265737300000000000000000000000000000000000000000000000000006064820152fd5b8280fd5b50346101d95760208060031936011261044f57813591821561040e5784903382526001835261021184868420541015610fbc565b33825260018352848220610226858254611074565b905561023484600354611074565b60035584519061024382610e3d565b60028252853685840137306102578361109e565b526001600160a01b038060065460081c16908751906315ab88c960e31b825286828581865afa9182156104045786926103d5575b50610295856110c1565b91169052865163d06ca61f60e01b815286838201528760248201528481806102c0604482018861114d565b0381855afa9182156103cb5761031f93866102e581958b9583916103b1575b506110c1565b51968b51968795869485937f8803dbee00000000000000000000000000000000000000000000000000000000855242928c3093870161118a565b03925af180156103a757839283928392610385575b5081811561037c575b3390f115610370577f92f64ca637d023f354075a4be751b169c1a8a9ccb6d33cdd0cb3520543995727918351908152a151f35b505051903d90823e3d90fd5b506108fc61033d565b6103a0903d8085833e6103988183610e6f565b8101906110d1565b5038610334565b86513d85823e3d90fd5b6103c591503d8085833e6103988183610e6f565b386102df565b88513d87823e3d90fd5b6103f6919250873d89116103fd575b6103ee8183610e6f565b81019061107f565b903861028b565b503d6103e4565b89513d88823e3d90fd5b60649184519162461bcd60e51b8352820152601360248201527f496e76616c69642073656c6c20616d6f756e74000000000000000000000000006044820152fd5b8380fd5b50503461049c578060031936011261049c5780602092610471610ee8565b610479610f03565b6001600160a01b0391821683526002865283832091168252845220549051908152f35b5080fd5b50503461049c57602036600319011261049c576001600160a01b036104c3610ee8565b6104cb610f19565b166104d78115156111c2565b73ffffffffffffffffffffffffffffffffffffffff19600754161760075551f35b50503461049c578160031936011261049c576020906001600160a01b03600754169051908152f35b50503461049c57602036600319011261049c5761053b610ee8565b610543610f19565b6105576001600160a01b03821615156111c2565b7fffffffffffffffffffffff0000000000000000000000000000000000000000ff74ffffffffffffffffffffffffffffffffffffffff006006549260081b1691161760065551f35b50503461049c578060031936011261049c576105b9610ee8565b906001600160a01b0360243592166105d2811515610f71565b338452600192826020958587526105ee83838320541015610fbc565b8381528587526106156106048484842054611007565b858352878952838320541115611029565b338152858752818120610629848254611074565b90558381528587522061063d828254611007565b905582519081527fddf252ad1be2c89b69c2b068fc378daa952ba7f163c4a11628f55a4df523b3ef853392a351908152f35b50826003193601126101d95734156108395781519061068d82610e3d565b60028252602090833683850137846001600160a01b03938460065460081c16948651906315ab88c960e31b8252858286818a5afa91821561082f578492610810575b506106d98361109e565b91169052306106e7826110c1565b5285519463d06ca61f60e01b86523484870152866024870152828680610710604482018661114d565b0381845afa9586156108065761076c966107309185916107f257506110c1565b51938388518098819582947f38ed1739000000000000000000000000000000000000000000000000000000008452429130918b3491870161118a565b03925af19283156107e8577f4e08ba899977cf7d4c2964bce71c6b9a7ef76ee5166a4c1249a1e08016e33ef1936107ce575b50338552600182528385206107b4828254611007565b90556107c281600354611007565b6003558351908152a151f35b6107e1903d8088833e6103988183610e6f565b503861079e565b84513d87823e3d90fd5b6103c591503d8087833e6103988183610e6f565b87513d85823e3d90fd5b610828919250863d88116103fd576103ee8183610e6f565b90386106cf565b88513d86823e3d90fd5b6020606492519162461bcd60e51b8352820152601760248201527f496e76616c696420707572636861736520616d6f756e740000000000000000006044820152fd5b5090346101d957826003193601126101d957805191836005549060019082821c928281168015610973575b6020958686108214610960575084885290811561093e57506001146108e5575b6108e186866108d7828b0383610e6f565b5191829182610e91565b0390f35b929550600583527f036b6384b5eca791c62761152d0c79bb0604c104a5fb6f4eb0703f3154bb3db05b82841061092b57505050826108e1946108d79282010194386108c6565b805486850188015292860192810161090e565b60ff191687860152505050151560051b83010192506108d7826108e1386108c6565b836022602492634e487b7160e01b835252fd5b93607f16936108a6565b50503461049c578160031936011261049c576001600160a01b0360209254169051908152f35b50503461049c578160031936011261049c576020906001600160a01b0360065460081c169051908152f35b50503461049c578160031936011261049c576109e8610f19565b816001600160a01b0381549273ffffffffffffffffffffffffffffffffffffffff19841683555192167f8be0079c531659141344cd1fd0a4f28419497f9722a3daafe3b4186f6b6457e08284a3f35b50503461049c57602036600319011261049c57806020926001600160a01b03610a5e610ee8565b1681526001845220549051908152f35b50346101d95760203660031901126101d9579181602093359133815260018552610a9d83838320541015610fbc565b3381526001855220610ab0828254611074565b9055610abe81600354611074565b60035581519081527fcc16f5dbb4873280815c1ee09dbd06736cffcc184412cf7a71a0fdb75d397ca5833392a25160018152f35b50503461049c578160031936011261049c5760209060ff600654169051908152f35b5091903461049c57606036600319011261049c57610b30610ee8565b610b38610f03565b604435906001600160a01b0380911692610b53841515610f71565b1690818552600194602096868852610b7083878420541015610fbc565b838252600288528582203383528852828683205410610c2b57507fddf252ad1be2c89b69c2b068fc378daa952ba7f163c4a11628f55a4df523b3ef918582868a9452888452610bd6610bc58484842054611007565b8883528a8652838320541115611029565b858152888452818120610bea848254611074565b9055868152888452818120610c00848254611007565b905585815260028452818120338252845220610c1d828254611074565b90558551908152a351908152f35b6064908887519162461bcd60e51b8352820152601660248201527f496e73756666696369656e7420616c6c6f77616e6365000000000000000000006044820152fd5b50503461049c578160031936011261049c576020906003549051908152f35b509134610d465781600319360112610d4657610ca6610ee8565b6001600160a01b036024359116918215610d035760209450838291338152600287528181208582528752205582519081527f8c5be1e5ebec7d5bd14f71427d1e84f3dd0314c0f7b2291e5b200ac8c7c3b925843392a35160018152f35b606485602086519162461bcd60e51b8352820152601760248201527f496e76616c6964207370656e64657220616464726573730000000000000000006044820152fd5b80fd5b9050828434610d465780600319360112610d4657809380549160019083821c92828516948515610e33575b6020958686108114610e2057858952908115610dfc5750600114610da4575b6108e187876108d7828c0383610e6f565b81529295507f8a35acfbc15ff81a39ae7d344fd709f28e8600b4aa8c65c6b64bfe7fe36bd19b5b828410610de957505050826108e1946108d792820101948680610d93565b8054868501880152928601928101610dcb565b60ff19168887015250505050151560051b83010192506108d7826108e18680610d93565b602484602285634e487b7160e01b835252fd5b93607f1693610d74565b6060810190811067ffffffffffffffff821117610e5957604052565b634e487b7160e01b600052604160045260246000fd5b90601f8019910116810190811067ffffffffffffffff821117610e5957604052565b919091602080825283519081818401526000945b828610610ed2575050806040939411610ec5575b601f01601f1916010190565b6000838284010152610eb9565b8581018201518487016040015294810194610ea5565b600435906001600160a01b0382168203610efe57565b600080fd5b602435906001600160a01b0382168203610efe57565b6001600160a01b03600054163303610f2d57565b606460405162461bcd60e51b815260206004820152602060248201527f4f776e61626c653a2063616c6c6572206973206e6f7420746865206f776e65726044820152fd5b15610f7857565b606460405162461bcd60e51b815260206004820152601960248201527f496e76616c696420726563697069656e742061646472657373000000000000006044820152fd5b15610fc357565b606460405162461bcd60e51b815260206004820152601460248201527f496e73756666696369656e742062616c616e63650000000000000000000000006044820152fd5b81198111611013570190565b634e487b7160e01b600052601160045260246000fd5b1561103057565b606460405162461bcd60e51b815260206004820152601660248201527f496e7465676572206f766572666c6f77206572726f72000000000000000000006044820152fd5b818110611013570390565b90816020910312610efe57516001600160a01b0381168103610efe5790565b8051156110ab5760200190565b634e487b7160e01b600052603260045260246000fd5b8051600110156110ab5760400190565b906020908183820312610efe57825167ffffffffffffffff93848211610efe570181601f82011215610efe578051938411610e59578360051b906040519461111b85840187610e6f565b85528380860192820101928311610efe578301905b82821061113e575050505090565b81518152908301908301611130565b90815180825260208080930193019160005b82811061116d575050505090565b83516001600160a01b03168552938101939281019260010161115f565b916080936111b7916001600160a01b0393989796988552602085015260a0604085015260a084019061114d565b951660608201520152565b156111c957565b606460405162461bcd60e51b815260206004820152600f60248201527f496e76616c6964204164647265737300000000000000000000000000000000006044820152fdfea2646970667358221220d8a97af70c842cad09799484347f4ebf5b8875986c6c8867991aa9d4e241b03e64736f6c634300080f0033",
  "linkReferences": {},
  "deployedLinkReferences": {}
}